:020000040800F2
:1000000090060020A5010008A71500089514000817
:10001000A51500083F040008751A0008000000003C
:10002000000000000000000000000000851700082C
:10003000F904000800000000D51500088917000821
:10004000BF010008BF010008BF010008BF01000890
:10005000BF010008BF010008BF010008BF01000880
:10006000BF010008BF010008BF010008BF01000870
:10007000BF010008BF010008BF010008BF01000860
:10008000BF010008BF010008BF010008BF01000850
:10009000BF010008BF010008BF010008BF01000840
:1000A000BF010008BF010008BF010008C518000813
:1000B000BF0100080000000000000000BF010008B0
:1000C000BF0100080000000000000000BF010008A0
:1000D00000000000BF010008BF0100080000000090
:1000E000BF010008BF010008000000000000000080
:1000F0000000000000000000000000000000000000
:10010000000000000000000000000000BF01000827
:100110000000000000000000BF010008BF0100084F
:10012000BF010008BF010008BF010008BF010008AF
:10013000BF010008000000000000000000000000F7
:10014000BF010008BF010008BF010008BF0100088F
:10015000BF010008BF010008BF010008BF0100087F
:10016000BF010008BF010008BF0100080000000037
:10017000BF010008BF0100080000000000000000EF
:10018000BF010008BF010008BF010008DFF810D060
:1001900000F034F900480047551D0008AFF3008017
:1001A000900600200648804706480047FEE7FEE725
:1001B000FEE7FEE7FEE7FEE7FEE7FEE7FEE7FEE717
:1001C000811800088D010008D2B201E000F8012B6F
:1001D000491EFBD270470022F6E710B513460A46C7
:1001E00004461946FFF7F0FF204610BD2DE9FE4FEB
:1001F00081EA030404F0004421F0004100944FF030
:10020000000B23F0004350EA01045ED052EA0304DD
:100210005BD0C3F30A54C1F30A552C44A4F2F3345F
:100220000194A0FB0254C1F3130141F48011C3F304
:10023000130343F4801301FB024400FB034E840AC2
:10024000970A44EA815447EA8357A4FB076802955A
:100250008D0A05FB07854FEA932C04FB0C542705F8
:10026000029D4FEA065847EA1637B5EB08056EEBD4
:10027000070C870E920E47EA811742EA8312A7FB0A
:100280000201B6EB0B0164EB00042B0D43EA0C33C7
:100290005E1844EB1C50DA465146E7FB0201C5F3F9
:1002A00013044FEA0B3343EA14534FEA0432019C20
:1002B00043EA0603A4F10C040294009CCDE900B4C7
:1002C00000F04EF803B000F003B800200146F9E753
:1002D00030BCBDE8C08F0EB540F233410291002121
:1002E000CDE900110A460B4600F03AF803B000BD14
:1002F000C1F30A5210B5C1F3130140F2FF3341F4C8
:1003000080119A4201DA002010BD40F233439A4234
:10031000A2F2334203DC524200F003F810BD9040D9
:1003200010BD202A04DB203A21FA02F00021704798
:1003300021FA02F3D040C2F120029140084319464D
:10034000704710B5141E73F1000408DA401C41F127
:10035000000192185B411A4301D120F0010010BD49
:100360002DE9F04D92469B4611B1B1FA81F202E0BF
:10037000B0FA80F22032904600F052F804460F4660
:1003800040EA0A0041EA0B0153465A46084313D09B
:10039000114653EA010019D0C8F140025046FFF758
:1003A000C0FF05460E4650465946424600F038F812
:1003B000084305D0012004E020463946BDE8F08D11
:1003C0000020054346EAE0762C4337430A9863054C
:1003D000E40AA0EB08000022FD0A44EA47540A3070
:1003E00002D500200146E9E7010510196941DDE960
:1003F000084500196941BDE8F04DA2E7064C074DDC
:1004000006E0E06840F0010394E8070098471034E4
:10041000AC42F6D3FFF7BEFE4C1E00086C1E00086F
:10042000202A04DB203A00FA02F1002070479140B4
:10043000C2F1200320FA03F3194390407047FEE70E
:100440002DE9F041264C274D4FF6F576207870B116
:1004500001281CD10021284600F0F9FFA06029687E
:1004600000274F626168884213D9401A19E00021C1
:100470001C4800F0ECFF6060012020702868016AD1
:10048000314001622868016A41F002010162BDE861
:10049000F081814201D8E06804E04FF6FF72511A02
:1004A0000844E060FFF717FF9FED0F1B53EC112B83
:1004B000FFF79CFE9FED0E1B53EC112BFFF796FEF2
:1004C000FFF716FF607027702868016A31400162EB
:1004D0002868016A0162C16821F00201C160D6E7A3
:1004E0000C000020280000209CC420B07268A13FAE
:1004F000000000000000E03F704700002DE9F84FC9
:10050000DFF870B1002301274FF0030A4FF00F0905
:100510000BF1040EA7E000BF07FA03F6324070D0DB
:100520004C68022C01D0122C10D1DC0800EB84089E
:10053000D8F820405D074FEAD56C09FA0CF5AC43BA
:100540000D6905FA0CF52543C8F82050D0F8008055
:100550005D0091F804C00AFA05F40CF0030C28EAD7
:1005600004080CFA05FC4CEA080CC0F800C0D1F8ED
:1005700004C0BCF1010F08D0BCF1020F05D0BCF1E2
:10058000110F02D0BCF1120F16D1D0F808C0D1F86B
:100590000C802CEA040C08FA05F848EA0C08C0F8AC
:1005A0000880D0F804C02CEA060C0E79C6F30016B9
:1005B0009E4046EA0C064660C668A6438C68AC407E
:1005C0003443C4604C68E4004CD52B4C256E45F098
:1005D00001052566246E23F0030504F00104009450
:1005E000264C2E19B4689D074FEA157C09FA0CF5C4
:1005F000AC43B0F1904F05D0214DA84204D1012564
:1006000008E02FE0002505E01E4DA84201D102259B
:1006100000E0072505FA0CF52543B560DBF800403E
:100620005D464E689443F60300D514432C60DEF813
:10063000004075464E689443B60300D514432C60C1
:100640000C4D08352C684E689443F60200D51443CF
:100650002C60084D0C352C684E689443B60200D5CA
:1006600014432C605B1C0A6832FA03F47FF454AF25
:1006700000F00AB8000401400010024000000140F0
:10068000000400480008004818BCBDE8E08F0AB12B
:1006900081617047816270470148006870470000BF
:1006A0000400002002480168491C016070470000F6
:1006B0000400002010B50024032000F065F800209D
:1006C00000F008F808B1012401E000F01BF8204612
:1006D00010BD000070B5054609484FF47A7100243A
:1006E0000068B0FBF1F000F0F9FB08B1012404E070
:1006F00000222946501E00F027F8204670BD000059
:1007000008000020094808B5016E41F001010166AA
:10071000016E01F001010091816D41F08051816510
:10072000806D00F08050009008BD00000010024075
:1007300000F01F02012191404009800000F1E020FB
:10074000C0F8001170470000F0B40E4B1B680C4657
:10075000C3F30223C3F10705042D00D90425191D95
:10076000072901D2002300E0DB1E012606FA05F16D
:10077000491E214099409E40761E16403143F0BCF0
:1007800000F012BF0CED00E0064900F00702086817
:100790004FF6FF03184040EA0220034A1043086066
:1007A000704700000CED00E00000FA051649B0F5B6
:1007B000007F0868C0F3412009D0022805D00868EE
:1007C00020F4C06040F48060086000207047012879
:1007D000FBD0086820F4C06040F4007008600B484B
:1007E0003222006850430A4AB0FBF2F0401C00E09D
:1007F000401E4A69520501D50028F9D148694005D3
:10080000E3D503207047000000700040080000207E
:1008100040420F000248006800F4C06070470000CA
:10082000007000400248016841F480710160704727
:10083000007000400248016841F004010160704707
:10084000001002402DE9F0470F46050058D03F4EFA
:10085000306800F00700B84209D2306820F0070085
:1008600038433060306800F00700B84248D128783B
:10087000374CC0072CD06868032811D0022812D04A
:10088000216898B1490500293ADAA16821F00301ED
:100890000143A160FFF700FF804641F2883910E074
:1008A00021688901EFE721688903ECE78907EAE716
:1008B000FFF7F2FEA0EB0801494502D90320BDE88D
:1008C000F087A068696800F00C00B0EB810FEFD1F1
:1008D0002878800705D5A068A96820F0F0000843B3
:1008E000A060306800F00700B8420BD9306820F0F3
:1008F000070038433060306800F00700B84201D08C
:100900000120DCE72878400705D5A068E96820F4D5
:10091000E0600843A0602878000706D5A068296930
:1009200020F4605040EAC100A06000F01DF8A1680A
:10093000084AC1F30311515C01F01F01C840064988
:100940000860BDE8F0470020FFF7C4BE0020024069
:10095000001002400C1E000808000020014800683A
:10096000704700000800002070B525490023184694
:100970008A68CC6812F00C0204F00306214C4FEA9E
:10098000640509D00C2A05D0042A26D0082A00D1F3
:10099000284670BD012E10D10B681B0704D4D1F876
:1009A0009430C3F3032302E00B68C3F30313164E22
:1009B00056F823307AB10C2AEBD1C86800F0030254
:1009C000C868C0F30210401C022A08D0032A09D0CC
:1009D000B3FBF0F008E0184670BD204670BDB4FBD4
:1009E000F0F001E0B5FBF0F0CA68C968C2F3062276
:1009F0005043C1F34161491C4900B0FBF1F070BDA7
:100A0000001002400024F4001C1E00082DE9F843E9
:100A100005007CD0FD4CA06800F00C06E06800F0FA
:100A200003072878C00662D576B10C2E01D1012FBC
:100A30000AD0A8690028206878D040F00100206022
:100A4000FFF72AFE804659E02068800702D5A86992
:100A50000028DED0296A2068000703D5206800F04E
:100A6000F00004E0D4F89400F02202EA1010814271
:100A700016D9084600F0F4FD002848D1206840F05F
:100A8000080020602068296A20F0F00008432060F8
:100A90006068E96920F47F4040EA0120606015E069
:100AA000206840F0080020602068296A20F0F000EB
:100AB000084320606068E96920F47F4040EA012033
:100AC0006060286A00F0CCFD0028D6D1FFF74CFF0B
:100AD000A168CF4AC1F30311515C01F01F01C84066
:100AE000CC4908600020FFF7F5FD00287ED12EE0FC
:100AF000FFF7D2FDA0EB0800022878D82068800715
:100B0000F6D5206840F008002060206801E0BBE0D6
:100B10000CE0296A20F0F000084320606068E96971
:100B200020F47F4040EA0120606010E020F00100E6
:100B30002060FFF7B1FD804606E000BFFFF7ACFD87
:100B4000A0EB08000228D8D820688007F6D42878BF
:100B5000C00740D0082E18D00C2E01D1032F14D07E
:100B60006868B0F5803F17D0B0F5A02F206817D087
:100B700020F480302060206820F4802020606868A5
:100B8000E0B1FFF789FD804614E02068800322D59C
:100B90006868002878D01EE0206840F48030EDE7D7
:100BA00040F480202060F7E7FFF776FDA0EB080017
:100BB0006428A2D820688003F6D50CE0FFF76CFD0E
:100BC000804605E0FFF768FDA0EB0800642894D894
:100BD00020688003F6D4287880073BD5042E11D0F6
:100BE0000C2E01D1022F0DD0E86801E05EE1B8E0E3
:100BF000002820681ED040F480702060FFF74CFD74
:100C000007460CE0206840050CD5E8680028C1D0F4
:100C100008E000BFFFF740FDC01B022893D8206802
:100C20004005F7D56068297C20F0F85040EA016063
:100C300060600FE020F480702060FFF72DFD074614
:100C400005E000BFFFF728FDC01B0228B1D82068CF
:100C50004005F7D42878000729D568690028D4F81A
:100C6000940012D040F00100C4F89400FFF714FD86
:100C7000074604E0FFF710FDC01B022871D8D4F826
:100C800094008007F6D512E017E120F00100C4F8C7
:100C90009400FFF701FD074605E000BFFFF7FCFCED
:100CA000C01B02285DD8D4F894008007F6D42878B9
:100CB000400766D5A06D0027C00008D4A06D40F0A5
:100CC0008050A065A06D012700F080500090524830
:100CD0000168C90512D40168814641F48071016040
:100CE000FFF7DAFC804605E0FFF7D6FCA0EB080032
:100CF000022836D8D9F80000C005F5D5A868012823
:100D000016D00528D4F8900017D020F00100C4F8C0
:100D10009000D4F8900020F0040000BFC4F89000C8
:100D2000A86841F28839C0B1FFF7B6FC80460FE0F1
:100D3000D4F8900040F00100F0E740F00400C4F85F
:100D40009000F5E7FFF7A8FCA0EB0801494508D89B
:100D5000D4F890008007F5D50EE0FFF79DFC8046A3
:100D600006E07CE0FFF798FCA0EB0801494576D847
:100D7000D4F890008007F5D41FB1A06D20F080500A
:100D8000A0652878800628D5686A0028D4F89800DD
:100D900012D040F00100C4F89800FFF77DFC074630
:100DA00005E000BFFFF778FCC01B02287DD8D4F80F
:100DB00098008007F6D510E020F00100C4F89800F4
:100DC000FFF76AFC074604E0FFF766FCC01B022839
:100DD0006BD8D4F898008007F6D4A86AF0B30C2E2C
:100DE0006BD00228206820F08070206018D0206826
:100DF000000103D4E06820F00300E060E0680749E8
:100E00000840E060FFF748FC054651E00010024052
:100E10000C1E00080800002000700040FFFFEEFEDE
:100E2000FFF73AFC064604E0FFF736FC801B022879
:100E30003BD820688001F7D4286B55F82C1F00019F
:100E400010380843298A1E4A490802EB4151AA6812
:100E500041EA02210843297D490801E02BE024E012
:100E60004FF07E4202EB41610843297B40EAC160BA
:100E7000E060206840F080702060E06840F08070A2
:100E8000E060FFF709FC054605E000BFFFF704FC42
:100E9000401B022809D820688001F7D50BE000BF6D
:100EA000FFF7FAFB401B022802D90320BDE8F883B4
:100EB00020688001F4D40020F8E70120F6E7000064
:100EC0000000E0FF4FF0E0210428086903D020F083
:100ED00004000861704740F00400FAE710B5401EB6
:100EE000B0F1807F01D3012010BD4FF0E02460619C
:100EF0000F21601700F058FB0020A061072020613F
:100F0000002010BD704770477047000070B590F822
:100F10003C20012A21D0012480F83C40022280F8A4
:100F20003D2003685A689D680D4EB34203D122F4F8
:100F300070064A68324322F070060A6889683243B4
:100F400025F0800529435A600268916080F83D4091
:100F5000002180F83C10084670BD022070BD0000E2
:100F6000002C014010B5040003D094F83D0010B1EE
:100F700007E0012010BD002084F83C00204600F06E
:100F80000DF8022084F83D00211D206800F0A0FC2F
:100F9000012084F83D00002010BD000010B586B08F
:100FA000044614216846FFF716F91749206888425D
:100FB00027D11648016E41F400610166016E01F40B
:100FC00000610591C16C41F00101C164C06C6946CA
:100FD00000F0010005904FF4807000900220019015
:100FE000002002900390012004904FF09040FFF702
:100FF00085FA002211461B20FFF7A6FB1B20FFF7F6
:1010000097FB06B010BD0000002C0140001002400C
:1010100070B5044690F83C00012817D0012584F8EB
:101020003C50022084F83D0020688268324E3240F5
:1010300022F47F4282600868502839D00DDC2028D5
:1010400055D005DC98B3102843D150E0022070BD84
:1010500030284CD040283CD141E0602830D0702866
:101060000CD0B0F5805F03D0B0F5005F31D112E055
:1010700020688168204A7032114016E0CB68D1E9BF
:101080000121206800F067FC21688868304040F04A
:10109000770088601DE0CB68D1E90121206800F06D
:1010A0005AFC2068816841F48041816011E01EE0B3
:1010B000CA684968206800F060FC5021206806E09A
:1010C000CA684968206800F091FC6021206800F03F
:1010D0004CFC84F83D50002084F83C0070BDCA6888
:1010E0004968206800F049FC40212068EFE7226849
:1010F00001461046EBE7000088FFFEFF007F012855
:1011000001D1FFF79DB970472DE9F041044690F8F1
:101110003C000D4601283DD0012684F83C600220A9
:1011200084F83D00AAB3042A46D02068082A55D086
:10113000D5E90027E968036A23F480530362D0F8F5
:101140001CC0036A2CF4407C4CEA07274FF6FF7C56
:1011500027F470470CEA013139434FF4204723F458
:10116000204307EA02321A43C16102622068C16962
:1011700021F44061C1612068C169AA6841EA022185
:10118000C0F81C1084F83D60002084F83C00BDE8E5
:10119000F08101E00220FAE7D5E90012EB6820684F
:1011A00000F0FCFB2068816921F00C01816120685E
:1011B0008169AA6811430FE0D5E90012EB68206845
:1011C00000F026FC2068816921F44061816120687B
:1011D0008169AA6841EA02218161D3E7D5E9002C3F
:1011E0002F7B016A21F480710162C169036A21F0D9
:1011F000030141EA0C0121F0F00C39074FF420679C
:101200004CEA116123F4206307EA02221A43C16108
:1012100002622068C16921F00C01C1612068C169C6
:10122000AA681143ACE710B5040003D094F83D0060
:1012300010B107E0012010BD002084F83C002046DA
:1012400000F00CF8022084F83D00211D206800F019
:101250003FFB012084F83D00002010BD70470000D6
:1012600010B50268044631B1042908D008291FD0FE
:101270000C2908D120E0D06840F0020002E0D068DC
:1012800040F00400D0600122206800F057FB206885
:1012900082680B490A40062A08D082680A40B2F5E3
:1012A000803F03D0016841F001010160002010BDC2
:1012B000D06840F00800E5E7D06840F01000E1E7B2
:1012C0000700010070B50446006801694FF0000591
:1012D000C943890715D4C168C943890711D4E91ED8
:1012E000016101202077206880698007204602D0B4
:1012F000FFF704FF04E000F0A7F8204600F0A5F88F
:10130000257720680169C943490717D4C168C943D3
:10131000490713D46FF0040101610220207720688F
:10132000806910F4407F204602D0FFF7E7FE04E01A
:1013300000F08AF8204600F088F8257720680169D7
:10134000C943090716D4C168C943090712D46FF00D
:1013500008010161042020772068C06980072046C9
:1013600002D0FFF7CBFE04E000F06EF8204600F05C
:101370006CF8257720680169C943C90617D4C1688C
:10138000C943C90613D46FF010010161082020770A
:101390002068C06910F4407F204602D0FFF7AEFEFF
:1013A00004E000F051F8204600F04FF8257720685F
:1013B0000169C943C90708D1C168C943C90704D134
:1013C000891E0161204600F041F820680169C94387
:1013D000090609D4C168C943090605D46FF0800124
:1013E00001612046FFF78FFD20680169C943C905E7
:1013F00009D4C168C943090605D46FF4807101613D
:101400002046FFF77FFD20680169C943490609D4DA
:10141000C168C943490605D46FF040010161204607
:1014200000F037F820680169C94389060BD4C16808
:10143000C943890607D46FF0200101612046BDE849
:101440007040FFF761BD70BD70477047704790F8FE
:101450003C300022012B0AD0012380F83C3041B1FE
:10146000042909D008290AD00C290DD10AE002204C
:10147000704701684A6B07E001688A6B04E0016805
:10148000CA6B01E001680A6C002180F83C1010462C
:1014900070477047FEE70000F0B587B0142168463A
:1014A000FEF799FE1E48C16C41F00401C164C16C95
:1014B00001F004010591C16C41F00101C164C16CEE
:1014C00001F001010591C16C41F00201C164C06CE1
:1014D0004FF4007400F002004FF090460590002297
:1014E00021463046FFF7D3F80E4F00220821384638
:1014F000FFF7CDF80125CDE90045002402946946A7
:1015000030460394FEF7FAFF08200090CDE901541D
:10151000694638460394FEF7F1FF07B0F0BD0000BE
:10152000001002400004004810B58CB000240A945A
:101530001B48079408940994059406940494009415
:10154000019402941549039401600721C0E9011434
:101550004FF6FE71C0E9031444618461FFF702FD98
:101560004FF48050079007A90D48FFF751FD0C4834
:10157000FFF759FE0494059404A909480694FFF75F
:10158000C5FC0120CDE900400294002269460448D0
:101590000394FFF7B9FD0CB010BD0000002C014012
:1015A00028000020FEE770470907090E002806DA28
:1015B00000F00F0000F1E02080F8141D704700F1EA
:1015C000E02080F80014704701490020087070473F
:1015D00000000020704700002DE9F0431F4A136807
:1015E000946803EB430344F823101368042403EBCB
:1015F0004303916804EB8303C8501068401C00212A
:10160000106025E000201FE0936801EB410600EB2D
:10161000400553F8264053F82570BC4213DD814243
:1016200011D003EB860603EB8503D6E90198D3E9D5
:1016300001C33760C6E901C3936803EB8503C3F8B0
:101640000880C3E90049401C13688342DCDC491C64
:1016500010688842D6DCBDE8F083000074000020EA
:10166000F8B51C4D06460024A86DC00002D5FFF752
:10167000D1F80DE0A86D40F08050A865A86D00F08D
:1016800080500090FFF7C6F8A96D21F08051A96540
:10169000B0F5007F04D0802E07D94FF003040AE094
:1016A000802E08D9A02E01D804E001D1022402E046
:1016B000702E00D101240848016821F00701214360
:1016C0000160006800F00700A04201D00120F8BDD1
:1016D0000020F8BD001002400020024005490AC960
:1016E00020B10A460146184600F0E6BA1846FFF750
:1016F00073BF00006800002070B5012255024FF052
:10170000904629463046FEF7C2FF0A2000F0DCF979
:101710001948002484704278012A04D0911E0229BD
:1017200003D20A2110E005210EE0111F022901D287
:10173000142109E0911F022901D21E2104E0A2F127
:101740000801022902D22821016103E00A2A01D3FB
:1017500001218170002229463046FEF798FF074894
:101760000068C16841F00201C16005480470BDE82D
:1017700070401420FFF7B2BF0C00002028000020AA
:101780000000002070470000F0B413490120134D01
:10179000087000200827124914E000BF00EB400346
:1017A0008A6807EB83069359AB420ED09468AC422B
:1017B00007D0012C00DB58B1012B02DB08B15B1E06
:1017C0009351401C0A68002AE8D1F0BCFEF76ABFBA
:1017D000641E9460F5E70000000000209F86010071
:1017E0008000002010B596B044216846FEF7F3FC57
:1017F000142111A8FEF7EFFCFFF714F81D4850F86C
:10180000901F21F018010160142000900120002495
:101810000290CDE90604602008900A946846FFF71C
:10182000F5F80F20CDE9110413941494002111A8A8
:101830001594FFF707F84FF40070FEF7B7FFFFF7B6
:101840008DF8FEF748FD9FED0C1B53EC112BFEF7B6
:10185000CDFCFEF74DFDFFF741FB0420FFF732FB07
:1018600000221146501EFEF76FFFFEF7E3FF16B091
:1018700010BD0000001002409A9999999999A93FCA
:101880000D48016841F4700101600C48016841F0A5
:1018900001010160002181600268094B1A40026069
:1018A0008214C260026822F48022026081610249CF
:1018B000C00380390860704788ED00E000100240E6
:1018C000FFFFF6EA0148FFF7FDBC000028000020FA
:1018D00070B50268164B4FF08046984201D0B04276
:1018E00003D122F070044A682243124C124D9842F0
:1018F00005D0B04203D0A04201D0A84203D122F4C7
:101900004076CA6832434E6922F080023243026058
:101910008A68C2620A688262984203D0A04201D0FB
:10192000A84201D1096901630121416170BD000034
:10193000002C0140004001400044014010B501F07E
:101940001F030121046A99408C430462016A9A4092
:101950001143016210BD10B5846842EA032224F4E9
:101960007F440A432243826010BD826822F07002E5
:101970000A4342F007018160704710B5036A046AA8
:1019800024F001040462846924F0F00444EA02149F
:1019900023F00A020A438461026210BD70B5046A32
:1019A00024F0010404628469056A0E4EB04205D039
:1019B000B0F1804F02D00C4EB04203D124F00304AA
:1019C000144301E044F001041A0724F0F00444EA4F
:1019D000126225F00A0301F00A01194382610162D3
:1019E00070BD0000002C01400040014010B5036AAA
:1019F00023F0100303628369046A23F4704343EA0B
:101A0000023224F0A00343EA01118261016210BD99
:101A100030B5046A24F0100404628469056A24F471
:101A2000407444EA022222F470444FF6FF7202EA44
:101A300003322243A02425F0A00304EA0111194334
:101A40008261016230BD000010B5074C07480122D9
:101A5000A1780821FEF71BFE0549002008702069C7
:101A6000BDE81040FFF73ABE0C000020000400481B
:101A700000000020FEE70000084810B58178084803
:101A800051B101220821FEF702FE0649002008702C
:101A9000BDE81040FFF722BE0022F3E70C00002053
:101AA000000400480000002002E008C8121F08C11E
:101AB000002AFAD170477047002001E001C1121FCF
:101AC000002AFBD170470000044900220B685A62CB
:101AD00009684A6A8242FCD370470000280000204F
:101AE0002DE9F05F4949087800287DD04848494EE3
:101AF00008270268DFF820B14FF00C094FF0FF3AD9
:101B0000002A37DD8468A0F10C011CCC81E81C00A0
:101B10004FF000014A460EE001EB4103846801F1F9
:101B2000010104EB830502EB830304EB030C9CE847
:101B3000181085E8181003688B42EDDC591E01600F
:101B4000836801EB410143F821A00168826801EB41
:101B5000410107EB810156508268006800EB4003A9
:101B6000042000EB830042F800B029480C3840689C
:101B7000804702E001D100200870254C00250C347C
:101B80003EE000BF05EB4501A06807EB810141582D
:101B9000B14238D0816841BBD0E90010FFF71CFD8D
:101BA000002049460DE000BF00EB400CA368401C3C
:101BB00003EB8C0201EB8C0C634493E8081182E880
:101BC000081122688242EFDC501E2060A26800EB00
:101BD000400042F820A02168A06801EB410107EB1A
:101BE00081014650216801E00DE008E001EB41036E
:101BF0000421A26801EB83016D1E42F801B06D1C47
:101C000020680028BED100F009B8000000000020C4
:101C1000740000209F860100C915000830BCBDE893
:101C2000C09F00002DE9F05F1E4D0A240027C5E982
:101C30000074782000F0B4F805F10C06A860C6E93D
:101C40000074782000F0ACF8B0600020164BDFF88C
:101C50005CB0A946B246421E4FF0080ED9F80850B3
:101C600000EB40010EEB810645F82120D9F808C0B1
:101C7000042707EB81074CF80630D9F808C0401C50
:101C8000A0424CF807B0DAF8088048F82120DAF8CA
:101C900008108B51DAF8081041F807B0DEDB00F0CD
:101CA00007B80000740000209F860100C9150008D5
:101CB00030BCBDE8C09F00002DE9F047244B491C13
:101CC0001C689D6804EB4406082404EB8606A951B1
:101CD0001D68996805EB450541F825201A6804251B
:101CE00002EB4202996805EB820288501868401C9A
:101CF0000021186026E0002020E000BF01EB410C2D
:101D00009A6804EB8C05565900EB400504EB8507F7
:101D1000D759BE4211DA81420FD002EB8C0802EB98
:101D2000850298E8C010B146BA46C4CA88E8C40023
:101D30009A6802EB850282E80016401C1A6882420B
:101D4000DCDC491C18688842D5DCBDE8F08700005F
:101D500080000020FEF7AEFCFFF744FDFFF79CFB80
:101D6000FFF7E2FBFFF75EFF05210948FFF734FCB0
:101D700003210848FFF730FC01210748FFF72CFC3E
:101D800000210648FFF76CFAFFF7AAFEFCE7000007
:101D9000F9160008491A0008791A000828000020DE
:101DA000F0B50B30154D20F007010024144A0FE068
:101DB00003688B420BD38B4205D95E1A43184768E0
:101DC000C3E9006700E04368136002C004E0021D3D
:101DD00010680028ECD12046002802D1286808B1FC
:101DE0000020F0BD064A07481060074A121A22F088
:101DF0000702C0E9002401202860D7E72400002062
:101E0000200000209400002090020020000000002C
:101E1000000000000102030406070809A086010073
:101E2000400D0300801A060000350C0040420F00F0
:101E300080841E0000093D0000127A000024F40096
:101E400000366E010048E801006CDC026C1E0008E0
:101E50000000002028000000A81A0008941E0008B6
:101E60002800002068060000B81A000801000000E1
:101E70000000000000093D0000000000000000001C
:101E80000000000000000000000000000000000052
:041E9000000000004E
:040000050800018D61
:00000001FF
