:020000040800F2
:1000000018070020A5010008331D00080D1A00087C
:10001000311D0008A904000899260008000000000E
:10002000000000000000000000000000A120000807
:10003000F904000800000000691D0008A520000860
:10004000BF010008BF010008BF010008BF01000890
:10005000BF010008BF010008BF010008BF01000880
:10006000BF010008BF010008BF010008BF01000870
:10007000BF010008BF010008BF010008BF01000860
:10008000BF010008BF010008BF010008BF01000850
:10009000BF010008BF010008BF010008BF01000840
:1000A000BF010008BF010008BF010008BF01000830
:1000B000BF0100080000000000000000BF010008B0
:1000C000BF0100080000000000000000BF010008A0
:1000D0000000000015260008BF0100080000000015
:1000E000BF010008BF010008000000000000000080
:1000F0000000000000000000000000000000000000
:10010000000000000000000000000000BF01000827
:100110000000000000000000BF010008BF0100084F
:10012000BF010008BF010008BF010008BF010008AF
:10013000BF010008000000000000000000000000F7
:10014000BF010008BF010008BF010008BF0100088F
:10015000BF010008BF010008BF010008BF0100087F
:10016000BF010008BF010008BF0100080000000037
:10017000BF010008BF0100080000000000000000EF
:10018000BF010008BF010008BF010008DFF810D060
:1001900000F078F90048004731290008AFF30080EB
:1001A000180700200648804706480047FEE7FEE79C
:1001B000FEE7FEE7FEE7FEE7FEE7FEE7FEE7FEE717
:1001C000B12100088D0100082DE9F05F05460020EF
:1001D00092469B4688460646814640241BE02846B8
:1001E00041464746224600F0DFF853465A46C01AB9
:1001F000914110D311461846224600F0C6F82D1A38
:1002000067EB01084F4622460120002100F0BDF8AF
:1002100017EB00094E41201EA4F10104DFDC484623
:1002200031462A46434600F000B830BCBDE8C09FC6
:10023000D2B201E000F8012B491EFBD27047002228
:10024000F6E710B513460A4604461946FFF7F0FFD5
:10025000204610BD2DE9FE4F81EA030404F000445E
:1002600021F0004100944FF0000B23F0004350EACE
:1002700001045ED052EA03045BD0C3F30A54C1F315
:100280000A552C44A4F2F3340194A0FB0254C1F3A8
:10029000130141F48011C3F3130343F4801301FBF2
:1002A000024400FB034E840A970A44EA815447EA59
:1002B0008357A4FB076802958D0A05FB07854FEA63
:1002C000932C04FB0C542705029D4FEA065847EA7D
:1002D0001637B5EB08056EEB070C870E920E47EA52
:1002E000811742EA8312A7FB0201B6EB0B0164EB14
:1002F00000042B0D43EA0C335E1844EB1C50DA4625
:100300005146E7FB0201C5F313044FEA0B3343EAFE
:1003100014534FEA0432019C43EA0603A4F10C048F
:100320000294009CCDE900B400F05DF803B000F049
:1003300003B800200146F9E730BCBDE8C08F0EB518
:1003400040F2334102910021CDE900110A460B46EB
:1003500000F049F803B000BDC1F30A5210B5C1F373
:10036000130140F2FF3341F480119A4201DA002078
:1003700010BD40F233439A42A2F2334203DC5242B0
:1003800000F012F810BD904010BD202A04DB203A86
:1003900000FA02F1002070479140C2F1200320FAD8
:1003A00003F3194390407047202A04DB203A21FAD6
:1003B00002F00021704721FA02F3D040C2F120027E
:1003C000914008431946704710B5141E73F100049C
:1003D00008DA401C41F1000192185B411A4301D137
:1003E00020F0010010BD2DE9F04D92469B4611B161
:1003F000B1FA81F202E0B0FA80F220329046FFF7C3
:10040000C4FF04460F4640EA0A0041EA0B01534686
:100410005A46084313D0114653EA010019D0C8F1D7
:1004200040025046FFF7C0FF05460E46504659466B
:100430004246FFF7AAFF084305D0012004E020460A
:100440003946BDE8F08D0020054346EAE0762C43AE
:1004500037430A986305E40AA0EB08000022FD0A6E
:1004600044EA47540A3002D500200146E9E7010575
:1004700010196941DDE9084500196941BDE8F04DF1
:10048000A2E70000064C074D06E0E06840F00103DB
:1004900094E8070098471034AC42F6D3FFF77AFE91
:1004A000482A0008682A0008FEE70000114810B436
:1004B00001794279303901EB810102EB4101303998
:1004C00000F114020161537812786FF02F04303A72
:1004D00002EB820204EB42021A4400238A4202DB4E
:1004E0000121817000E08370C37010BC4FF416705E
:1004F00001F054BD00000020704710B590F82510A1
:100500000024022903D00421C16301241AE00168F8
:100510000A6822F00E020A6001680A6822F00102ED
:100520000A6090F84410036C01F01C02012101FAEA
:1005300002F25A6080F82510002180F82410816BA7
:1005400001B18847204610BD2DE9F84FDFF870B1A2
:10055000002301274FF0030A4FF00F090BF1040E9F
:10056000A7E000BF07FA03F6324070D04C68022CB7
:1005700001D0122C10D1DC0800EB8408D8F8204000
:100580005D074FEAD56C09FA0CF5AC430D6905FA25
:100590000CF52543C8F82050D0F800805D0091F894
:1005A00004C00AFA05F40CF0030C28EA04080CFA5B
:1005B00005FC4CEA080CC0F800C0D1F804C0BCF13E
:1005C000010F08D0BCF1020F05D0BCF1110F02D011
:1005D000BCF1120F16D1D0F808C0D1F80C802CEA6B
:1005E000040C08FA05F848EA0C08C0F80880D0F8AE
:1005F00004C02CEA060C0E79C6F300169E4046EAAB
:100600000C064660C668A6438C68AC403443C460A0
:100610004C68E4004CD52B4C256E45F00105256651
:10062000246E23F0030504F001040094264C2E19D7
:10063000B4689D074FEA157C09FA0CF5AC43B0F19C
:10064000904F05D0214DA84204D1012508E02FE0AC
:10065000002505E01E4DA84201D1022500E0072536
:1006600005FA0CF52543B560DBF800405D464E68A1
:100670009443F60300D514432C60DEF80040754621
:100680004E689443B60300D514432C600C4D0835D6
:100690002C684E689443F60200D514432C60084D34
:1006A0000C352C684E689443B60200D514432C6078
:1006B0005B1C0A6832FA03F47FF454AF00F00AB806
:1006C0000004014000100240000001400004004806
:1006D0000008004818BCBDE8E08F42694A4042610A
:1006E00070470AB1816170478162704701480068B4
:1006F000704700001C00002090F84120202A24D1DF
:1007000090F84020012A20D0012280F840202422A5
:1007100080F841200268136823F001031360026827
:10072000136823F480531360026813680B4313604B
:1007300001680A6842F001020A60202180F8411035
:10074000002180F84010084670470220704790F85A
:100750004120202A22D190F84020012A1ED00122D7
:1007600080F84020242280F841200268136823F09A
:10077000010313600268136823F4706343EA0121E4
:10078000116001680A6842F001020A60202180F8C5
:100790004110002180F84010084670470220704741
:1007A00070B5040004D094F84100002510B106E0B3
:1007B000012070BD84F84050204600F079F92420D3
:1007C00084F841002068016821F00101016060683F
:1007D000216820F0706008612068816821F4004180
:1007E0008160E0680128A06807D040F404402168D7
:1007F0008860E068022803D006E040F40040F6E795
:1008000021684FF40060486020684168114A114334
:1008100041602068C16821F40041C160D4E904014D
:100820000843A16940EA01202168C860D4E90701B2
:100830000843216808602068016841F001010160F7
:100840006564202084F84100256384F8425000202C
:1008500070BD0000008000022DE9F84F044690F8BA
:100860004100DDF828A01F4690468B4620287ED107
:1008700094F8400001287AD0012084F84000FFF766
:1008800035FF0646012200901923D103204601F0CE
:1008900027F9E0BB222084F84100102084F84200B0
:1008A00000256564C4F8248067856563618D3148DF
:1008B000FF274FF080784FF00079FF2903D9278573
:1008C0003A46009039E0618D218500903AE0594622
:1008D000204601F0EFF813E001F02EF9B8B92068D6
:1008E000406A616A0870606A401C6062208D401E28
:1008F00080B22085618D491E6185618D01B168B12D
:10090000608D3246002851462046E5D100E002E0E5
:1009100001F054F9D0B1012000F030B85346002264
:1009200080212046009601F0DBF80028F3D1608D8D
:10093000FF2804D927853A4600954346C7E7608DCE
:100940002085009594F828204B46C0E72168202098
:10095000C86121684A68084B1A404A6084F841001F
:1009600084F8425084F840500020D5E7FFE7022089
:10097000D2E700000024008000E800FE18BCBDE8BB
:10098000E08F00002DE9F84F044690F84100DDF8B3
:1009900028A01F4690468B4620287ED194F8400020
:1009A00001287AD0012084F84000FFF79FFE064618
:1009B000012200901923D103204601F091F8E0BBF9
:1009C000212084F84100102084F84200002565644D
:1009D000C4F8248067856563618D3148FF274FF037
:1009E00080784FF00079FF2903D927853A46009097
:1009F00039E0618D218500903AE05946204601F0AA
:100A000059F813E001F000F9B8B9606A216800787C
:100A10008862606A401C6062608D401E6085208D27
:100A2000401E80B22085618D01B168B1608D324673
:100A3000002851462046E5D100E002E001F0BEF872
:100A4000D0B1012000F030B853460022802120466A
:100A5000009601F045F80028F3D1608DFF2804D9F5
:100A600027853A4600954346C7E7608D2085009567
:100A700094F828204B46C0E721682020C8612168EF
:100A80004A68084B1A404A6084F8410084F8425092
:100A900084F840500020D5E7FFE70220D2E70000AD
:100AA0000020008000E800FE18BCBDE8E08F0000D8
:100AB00010B586B0044614216846FFF7C0FB124902
:100AC000206888421ED1114CE06C40F00200E064C6
:100AD000E06C694600F002000590C02000901220F2
:100AE0000190012002900320039004200490084804
:100AF000FFF72AFDA06D40F40010A065A06D00F482
:100B00000010059006B010BD0054004000100240D7
:100B10000004004802480168491C01607047000059
:100B20001C00002010B50024032000F065F8002010
:100B300000F008F808B1012401E000F01BF820469D
:100B400010BD000070B5054609484FF47A710024C5
:100B50000068B0FBF1F000F063FD08B1012404E08F
:100B600000222946501E00F027F8204670BD0000E4
:100B700020000020094808B5016E41F0010101661E
:100B8000016E01F001010091816D41F0805181659C
:100B9000806D00F08050009008BD00000010024001
:100BA00000F01F02012191404009800000F1E02087
:100BB000C0F8001170470000F0B40E4B1B680C46E3
:100BC000C3F30223C3F10705042D00D90425191D21
:100BD000072901D2002300E0DB1E012606FA05F1F9
:100BE000491E214099409E40761E16403143F0BC7C
:100BF00001F0A0B80CED00E0064900F0070208681B
:100C00004FF6FF03184040EA0220034A10430860F1
:100C1000704700000CED00E00000FA051649B0F541
:100C2000007F0868C0F3412009D0022805D0086879
:100C300020F4C06040F48060086000207047012804
:100C4000FBD0086820F4C06040F4007008600B48D6
:100C50003222006850430A4AB0FBF2F0401C00E028
:100C6000401E4A69520501D50028F9D1486940055E
:100C7000E3D50320704700000070004020000020F2
:100C800040420F000248006800F4C0607047000056
:100C9000007000400248016841F4807101607047B3
:100CA000007000400248016841F004010160704793
:100CB000001002402DE9F84F0446002700889C4DA3
:100CC0003E46000515D5E06B60B1B0F5000F04D0CD
:100CD000B0F5400F2BD001270AE0E86840F48030DF
:100CE000E86024E00021201D01F084F807001ED0F8
:100CF0003E462068800338D5A86D4FF00008C0003C
:100D000009D4A86D40F08050A865A86D4FF0010887
:100D100000F080500090DFF81CA2DAF8001041F4D7
:100D20008071CAF80010FFF7E1FC814610E0D5F8A9
:100D30008800E16B20F440000843C5F88800D8E73C
:100D4000FFF7D4FCA0EB0900022801D9032704E037
:100D5000DAF80000C005F3D5EFB33E46B8F1000F56
:100D600003D0A86D20F08050A8652078C00707D078
:100D7000D5F88800216A20F003000843C5F88800F0
:100D80002078800707D5D5F88800616A20F00C002C
:100D90000843C5F888002078800607D5D5F8880074
:100DA000A16A20F440600843C5F8880020888005C7
:100DB00007D5D5F88800616B20F440200843C5F8BA
:100DC00088002088400509D5D5F88800A16B20F45B
:100DD0004010084300E02EE0C5F888002078400667
:100DE00007D5D5F88800E16A20F440500843C5F8DB
:100DF00088002088C00507D5D5F88800216B20F42D
:100E000040300843C5F8880020884FF00067800410
:100E10004FF080684ED5D5F88800216C20F04060F6
:100E20000843C5F88800206CB8423BD1E86840F41C
:100E30008010E8603EE0D5F8900010F4407014D0C7
:100E4000216D814211D0D5F89000D5F8901020F492
:100E5000407041F48031C5F89010D5F8901021F41D
:100E60008031C5F89010C5F89000C00711D0FFF789
:100E70003DFC074641F2883907E000BFFFF736FC2A
:100E8000C11B494501D9032668E7D5F890008007C2
:100E9000F4D5D5F89000216D20F440700843C5F8D2
:100EA00090005BE7404505D10121201D00F0A2FF25
:100EB00000B106462068400317D5D5F88800616C5C
:100EC00020F040600843C5F88800606CB84204D147
:100ED000E86840F48010E86007E0404505D1012152
:100EE000201D00F087FF00B106462088400411D580
:100EF000D5F88800A16C20F040500843C5F8880060
:100F0000A06CB0F1805F05D10221201D00F072FFBE
:100F100000B106462088000406D555F8880FE16C1C
:100F200020F0804008432860304600F005B80000FB
:100F3000001002400070004018BCBDE8E08F0000C7
:100F40002DE9F0470F46050058D03F4E306800F0BD
:100F50000700B84209D2306820F0070038433060FB
:100F6000306800F00700B84248D12878374CC007F5
:100F70002CD06868032811D0022812D0216898B1BB
:100F8000490500293ADAA16821F003010143A16073
:100F9000FFF7ACFB804641F2883910E021688901F7
:100FA000EFE721688903ECE78907EAE7FFF79EFB93
:100FB000A0EB0801494502D90320BDE8F087A068ED
:100FC000696800F00C00B0EB810FEFD12878800742
:100FD00005D5A068A96820F0F0000843A06030683B
:100FE00000F00700B8420BD9306820F00700384302
:100FF0003060306800F00700B84201D00120DCE723
:101000002878400705D5A068E96820F4E060084327
:10101000A0602878000706D5A068296920F46050F0
:1010200040EAC100A06000F041F8A168084AC1F39D
:101030000311515C01F01F01C84006490860BDE87A
:10104000F0470020FFF77EBD002002400010024064
:10105000002A0008200000200148006870470000B6
:10106000200000200548064900688968054AC1F348
:101070000221515C01F01F01C84070472000002090
:1010800000100240402A00080548064900688968A7
:10109000054AC1F3C221515C01F01F01C8407047ED
:1010A0002000002000100240402A000870B52549A9
:1010B000002318468A68CC6812F00C0204F003067C
:1010C000214C4FEA640509D00C2A05D0042A26D009
:1010D000082A00D1284670BD012E10D10B681B07CD
:1010E00004D4D1F89430C3F3032302E00B68C3F3B4
:1010F0000313164E56F823307AB10C2AEBD1C86888
:1011000000F00302C868C0F30210401C022A08D095
:10111000032A09D0B3FBF0F008E0184670BD204662
:1011200070BDB4FBF0F001E0B5FBF0F0CA68C9682F
:10113000C2F306225043C1F34161491C4900B0FB90
:10114000F1F070BD001002400024F400102A0008E5
:101150002DE9F84305007CD0FD4CA06800F00C069A
:10116000E06800F003072878C00662D576B10C2E3F
:1011700001D1012F0AD0A8690028206878D040F05A
:1011800001002060FFF7B2FA804659E0206880072E
:1011900002D5A8690028DED0296A2068000703D597
:1011A000206800F0F00004E0D4F89400F02202EA95
:1011B0001010814216D9084600F0B2FE002848D12E
:1011C000206840F0080020602068296A20F0F000C4
:1011D000084320606068E96920F47F4040EA01200C
:1011E000606015E0206840F0080020602068296AEF
:1011F00020F0F000084320606068E96920F47F4037
:1012000040EA01206060286A00F08AFE0028D6D1FA
:10121000FFF74CFFA168CF4AC1F30311515C01F005
:101220001F01C840CC4908600020FFF78BFC002854
:101230007ED12EE0FFF75AFAA0EB0800022878D8FA
:1012400020688007F6D5206840F0080020602068FC
:1012500001E0BBE00CE0296A20F0F00008432060C8
:101260006068E96920F47F4040EA0120606010E096
:1012700020F001002060FFF739FA804606E000BF49
:10128000FFF734FAA0EB08000228D8D820688007BE
:10129000F6D42878C00740D0082E18D00C2E01D1E3
:1012A000032F14D06868B0F5803F17D0B0F5A02F99
:1012B000206817D020F480302060206820F480203F
:1012C00020606868E0B1FFF711FA804614E02068FA
:1012D000800322D56868002878D01EE0206840F49A
:1012E0008030EDE740F480202060F7E7FFF7FEF95B
:1012F000A0EB08006428A2D820688003F6D50CE093
:10130000FFF7F4F9804605E0FFF7F0F9A0EB0800DD
:10131000642894D820688003F6D4287880073BD5C9
:10132000042E11D00C2E01D1022F0DD0E86801E05F
:101330005EE1B8E0002820681ED040F48070206094
:10134000FFF7D4F907460CE0206840050CD5E868A3
:101350000028C1D008E000BFFFF7C8F9C01B022871
:1013600093D820684005F7D56068297C20F0F850B4
:1013700040EA016060600FE020F480702060FFF7B9
:10138000B5F9074605E000BFFFF7B0F9C01B02281A
:10139000B1D820684005F7D42878000729D56869B6
:1013A0000028D4F8940012D040F00100C4F8940052
:1013B000FFF79CF9074604E0FFF798F9C01B0228E5
:1013C00071D8D4F894008007F6D512E017E120F028
:1013D0000100C4F89400FFF789F9074605E000BF53
:1013E000FFF784F9C01B02285DD8D4F89400800769
:1013F000F6D42878400766D5A06D0027C00008D431
:10140000A06D40F08050A065A06D012700F08050D5
:10141000009052480168C90512D40168814641F420
:1014200080710160FFF762F9804605E0FFF75EF921
:10143000A0EB0800022836D8D9F80000C005F5D581
:10144000A868012816D00528D4F8900017D020F0FD
:101450000100C4F89000D4F8900020F0040000BF10
:10146000C4F89000A86841F28839C0B1FFF73EF98E
:1014700080460FE0D4F8900040F00100F0E740F023
:101480000400C4F89000F5E7FFF730F9A0EB08017D
:10149000494508D8D4F890008007F5D50EE0FFF74D
:1014A00025F9804606E07CE0FFF720F9A0EB080173
:1014B000494576D8D4F890008007F5D41FB1A06DC7
:1014C00020F08050A0652878800628D5686A00281A
:1014D000D4F8980012D040F00100C4F89800FFF74B
:1014E00005F9074605E000BFFFF700F9C01B022819
:1014F0007DD8D4F898008007F6D510E020F00100E0
:10150000C4F89800FFF7F2F8074604E0FFF7EEF89A
:10151000C01B02286BD8D4F898008007F6D4A86ABC
:10152000F0B30C2E6BD00228206820F08070206071
:1015300018D02068000103D4E06820F00300E060C8
:10154000E06807490840E060FFF7D0F8054651E041
:1015500000100240002A0008200000200070004017
:10156000FFFFEEFEFFF7C2F8064604E0FFF7BEF805
:10157000801B02283BD820688001F7D4286B55F8DF
:101580002C1F000110380843298A1E4A490802EB23
:101590004151AA6841EA02210843297D490801E036
:1015A0002BE024E04FF07E4202EB41610843297BAF
:1015B00040EAC160E060206840F080702060E06830
:1015C00040F08070E060FFF791F8054605E000BF4D
:1015D000FFF78CF8401B022809D820688001F7D556
:1015E0000BE000BFFFF782F8401B022802D903205E
:1015F000BDE8F88320688001F4D40020F8E70120DA
:10160000F6E700000000E0FF4FF0E0210428086941
:1016100003D020F004000861704740F00400FAE7AE
:1016200010B5401EB0F1807F01D3012010BD4FF0F6
:10163000E02460610F21601700F07CFB0020A061B6
:1016400007202061002010BD704770472DE9F04150
:1016500002680446D0691168936810F00F0F4FF0CC
:1016600000055BD003F0010601F49077374369D0A1
:10167000C70707D0CF0505D501271762626F42F073
:1016800001026267820708D5DA0706D027680222BE
:101690003A62626F42F004026267420708D5DA07D5
:1016A00006D0236804221A62626F42F00202626767
:1016B00002070AD501F02002324306D0236808222F
:1016C0001A62626F42F008026267626F002A32D0CB
:1016D000800605D5880603D5216E09B120468847C6
:1016E000606F000703D420688068400625D5204637
:1016F00000F034FE20688168490619D5816821F020
:1017000040018160E06E98B120498163E06EFEF790
:10171000F4FE00280FD0E06E816B06E0860611D53E
:101720008E060FD5216E1EE02046BDE8F041084729
:101730002046FFF78AFFBDE8F0812046FFF785FFCE
:101740006567F8E7C60209D55B0207D54FF480103C
:1017500010622046BDE8F041FFF776BF030605D5CD
:101760000B0603D5616E0029DED1E4E74006E2D521
:101770004806E0D51168204621F040011160202183
:1017800084F87110656600F040F9D4E74923000839
:1017900010B5040003D094F8710010B107E00120E7
:1017A00010BD002084F87000204600F027F82420A7
:1017B00084F871002068016821F001010160204671
:1017C00000F0DCFD0128EBD0606A10B1204600F08B
:1017D00029FD2068416821F49041416020688168BA
:1017E00021F02A0181602068016841F00101016057
:1017F0002046BDE8104000F079BD000010B586B06D
:10180000044614216846FEF71AFD174920688842ED
:1018100028D11648016E41F480410166016E01F441
:1018200080410591C16C41F00101C164C06C694601
:1018300000F0010005904FF4C0600090022001907C
:101840000020029003200390072004904FF0904066
:10185000FEF77AFE002207212520FFF7ADF92520AB
:10186000FFF79EF906B010BD00380140001002409D
:101870002DE9F84F044690F872009A4616460D4638
:10188000202865D1EDB1E6B194F8700001285FD051
:10189000012084F8700000276767222084F8720016
:1018A0005434FEF723FFA6808146E68054F84C0CA2
:1018B0004FF48058FF21543C404508D1206918B1AD
:1018C0000DE0012000F046B840F2FF100DE07F224D
:1018D00018B1B0F1805F05D009E0206950B9A4F8D3
:1018E0005C1004E0206928B13F20A4F85C00B4F843
:1018F0005C601CE0A4F85C20F9E74B460022202144
:101900002046CDF800A000F053FE08B10320D9E72F
:10191000A068404501D12069A0B12068808C30408A
:1019200005F8010BB4F85A00401EA4F85A00B4F8A8
:101930005A000028E1D1202084F8720084F87070E9
:101940000020BFE72068808C304025F8020BE9E7D3
:101950000220B7E718BCBDE8E08F2DE9F843044644
:1019600090F871001F4616460D4620284BD1C5B190
:10197000BEB194F87000012845D0012084F87000B1
:101980004FF00008C4F87480212084F87100FEF73D
:10199000ADFEA4F850608146A4F852604FF4805622
:1019A00015E00120BDE8F8838021204600F000FE0C
:1019B000D8B9A068B04201D12069C0B115F8010BB7
:1019C00021680885B4F85200401EA4F85200B4F80B
:1019D00052004B464FF0000200970028E4D14FF030
:1019E0004001204600F0E4FD30B10320DAE735F88D
:1019F000020BC0F30800E3E7202084F8710084F8AC
:101A000070800020CEE70220CCE77047FEE7016837
:101A10008A69D243920701D400228A6200688169F0
:101A2000C943C90703D0816941F001018161704751
:101A30002DE9F0410446006890460E468069C04397
:101A4000C00633D40025202720688069C043800663
:101A500015D5701CF8D0FEF749FEA0EB0800B04287
:101A600001D8002EF0D154F8440F40F0200044F883
:101A700004096770A57025700120BDE8F081216818
:101A80001020C8612068C7612046FFF7C0FF54F8E6
:101A9000440B4168064A11404160206840F0040050
:101AA00044F820096777A5772577E5E70020E4E784
:101AB00000E800FEF0B50568059C68684FF4806694
:101AC000064FC1F3090106EA545641EA02413E437A
:101AD0001943B043214308436860F0BDFF63FF032F
:101AE0002DE9F0411D4617460E460446DDF81880E4
:101AF00008E0681C06D0FEF7F9FDA0EB0800A8423C
:101B00000BD855B12068806936EA000012D0002059
:101B1000B842EED00020BDE8F08154F8440F40F008
:101B2000200044F80409202060700020A07020707C
:101B30000120F0E70120EBE72DE9F0410026904677
:101B40000F460446202525E0424639462046FFF749
:101B50006FFF78BB20688069C043800613D420687B
:101B60008169C943490701D4218DC1B9C56154F8C0
:101B7000440B4168104A1140416044F82069657780
:101B8000A677267716E0FEF7B1FDA0EB0800B84275
:101B900008D83FB120688069C0434007D4D40020F2
:101BA000BDE8F08154F8440F40F0200044F80409E7
:101BB000657026700120F3E700E800FE70B5164658
:101BC0000D4604460DE0324629462046FFF730FF19
:101BD00008B1012070BDFEF789FD801BA84207D81F
:101BE00035B120688069C0438006ECD4002070BD08
:101BF00054F8440F40F0200044F80409202060709D
:101C00000020A0702070E4E770B516460D4604462B
:101C10000FE0324629462046FFF70AFF08B10120AF
:101C200070BD681C05D0FEF761FD801BA84207D877
:101C300035B120688069C0438007EAD4002070BDB8
:101C400054F8440F40F0200044F80409202060704C
:101C50000020A0702070E2E710B586B0142168461D
:101C6000FEF7EDFA1548C16C41F00401C164C16C86
:101C700001F004010591C16C41F00101C164C16C26
:101C800001F001010591C16C41F00201C164C06C19
:101C90000B4C00F002000590002208212046FEF7C0
:101CA00020FD0820009001200021CDE901010391D1
:101CB00069462046FEF748FC06B010BD0010024001
:101CC000000400480E4810B50C49016040F614614C
:101CD000416000210122C0E902120161416181617C
:101CE000C1610162FEF75CFD00210548FEF704FDBD
:101CF000BDE8104000210248FEF729BD0054004015
:101D00002C0000200948084901604FF4E13141608E
:101D1000002181600C22C160C0E904128161C161AF
:101D200001624162FFF734BD0038014078000020B5
:101D3000FEE770470907090E002806DA00F00F00D9
:101D400000F1E02080F8141D704700F1E02080F8D9
:101D5000001470470348C178002901D00021C170E8
:101D60007047000000000020704700002DE9F0439C
:101D70001F4A1368946803EB430344F82310136865
:101D8000042403EB4303916804EB8303C8501068F9
:101D9000401C0021106025E000201FE0936801EB4B
:101DA000410600EB400553F8264053F82570BC422D
:101DB00013DD814211D003EB860603EB8503D6E9E0
:101DC0000198D3E901C33760C6E901C3936803EB07
:101DD0008503C3F80880C3E90049401C13688342A7
:101DE000DCDC491C10688842D6DCBDE8F0830000CA
:101DF000F00000202DE9F041444C05468846E0689B
:101E00000026810728680DD0E16801F003018142B6
:101E100016D1A8B1E0686968C0F30210401C88427E
:101E20000ED120E0012804D0022805D0032807D1D4
:101E300008E02168890701E021684905002907DBDE
:101E400001265FE02168890302D421684903F5E790
:101E5000E1686A686FF00F0321F0730103EB02126F
:101E600011430143E160206820F080602060FEF7AC
:101E70003DFC074605E000BFFEF738FCC01B02280A
:101E800037D820680001F7D4B8F1000F18D0B8F1A6
:101E9000010F1DD0287D4FF07E41400801EB4060CE
:101EA000A96840EA01202169194A114008432061CC
:101EB000206840F080602060FEF718FC07461AE0BA
:101EC000A868297B000240EAC1602169114AECE759
:101ED000288A1149400801EB4050A96840EA0120D6
:101EE00021690E4AE1E700BFFEF700FCC01B022893
:101EF00001D9032606E020680001F5D52069A9690B
:101F0000084320613046BDE8F08100000010024027
:101F1000FF80FFF9FF80FF070000E0FFFF809FFFC9
:101F2000F8B51C4D06460024A86DC00002D5FEF78A
:101F3000A9FE0DE0A86D40F08050A865A86D00F0E6
:101F400080500090FEF79EFEA96D21F08051A9659A
:101F5000B0F5007F04D0802E07D94FF003040AE0CB
:101F6000802E08D9A02E01D804E001D1022402E07D
:101F7000702E00D101240848016821F00701214397
:101F80000160006800F00700A04201D00120F8BD08
:101F90000020F8BD001002400020024005490AC997
:101FA00020B10A460146184600F074BC1846FFF7F7
:101FB000DDBE000008010020F8B50A240123364ADE
:101FC000D02136480094FEF7DDFC334D01236A1C16
:101FD000D12132480094FEF73FFC0123AA1CD021F6
:101FE0002E480094FEF7CEFCAE1C0123721CD121BA
:101FF0002A480094FEF730FC6978B1FBF4F004FB4A
:102000001012B1FBF4F105F10E0030324270B1FB59
:10201000F4F204FB1212B1FBF4F130320270697079
:1020200071784FF03002890907D03523012907D094
:10203000022908D0032909D00BE00271C27008E020
:102040000371322104E00271C37002E00371372191
:10205000C17011491148642305220E314C30FFF73D
:102060007CFC0D490D48C8230122891F4C30FFF725
:1020700074FC09490948C8230122491F4C30FFF765
:102080006CFC05490020891FC870BDE8F8404FF47A
:102090001670FFF783BF0000060000202C00002010
:1020A00070470000F0B413490120134D0870002060
:1020B0000827124914E000BF00EB40038A6807EBD1
:1020C00083069359AB420ED09468AC4207D0012CE2
:1020D00000DB58B1012B02DB08B15B1E9351401CA1
:1020E0000A68002AE8D1F0BCFEF714BD641E9460B3
:1020F000F5E70000030000209F860100FC0000209F
:1021000010B5ACB0442115A8FEF799F8142126A803
:10211000FEF795F854216846FEF791F8FEF7BAFDF0
:10212000204850F8901F21F01801016014201590EC
:10213000012000241790CDE91B0460201D901F94FE
:1021400015A8FFF705F80F20CDE926042894299457
:10215000002126A82A94FEF7F3FE4120009008945F
:102160000B946846FEF7A6FD4FF40070FEF756FD8F
:10217000FEF772FFFEF7E3F89FED0B1B53EC112BFC
:10218000FEF768F8FEF7E8F8FFF74AFA0420FFF7D1
:102190003BFA00221146501EFEF70EFDFEF782FDAF
:1021A0002CB010BD001002409A9999999999A93FB5
:1021B0000D48016841F4700101600C48016841F06C
:1021C00001010160002181600268094B1A40026030
:1021D0008214C260026822F4802202608161024996
:1021E000C00380390860704788ED00E000100240AD
:1021F000FFFFF6EA10B5094C0948A17819B108218A
:10220000FEF76BFA03E000220821FEF76AFA0020CD
:10221000E070BDE810400120FFF7C0BE00000020C4
:102220000004004890F82410C90706D001684A68E5
:10223000836A22F400321A434A6090F82410890716
:1022400006D501684A68C36A22F480321A434A609C
:1022500090F82410490706D501684A68036B22F4F8
:1022600080221A434A6090F82410090706D50168B5
:102270004A68436B22F400421A434A6090F82410E3
:10228000C90606D501688A68836B22F480521A4316
:102290008A6090F82410890606D501688A68C36BA5
:1022A00022F400521A438A6090F82410490611D58E
:1022B00001684A68036C22F480121A434A60016C78
:1022C000B1F5801F06D101684A68436C22F4C00250
:1022D0001A434A6090F82410090606D501684A6836
:1022E000806C22F4002202434A607047F8B5002651
:1022F00004464667FEF7FAF90546206800686FF065
:102300007E47000708D52B4600224FF400112046D7
:10231000009700F04DF960B92068006840070AD5C1
:102320002B4600224FF480012046009700F040F930
:1023300008B10320F8BD202084F8710084F87200F1
:1023400084F870600020F8BD10B5806A0021A0F804
:102350005A10A0F85210FFF778F910BD01680A680A
:1023600022F490720A6001688A6822F001028A6091
:10237000202180F872100021016670472DE9F0419C
:102380000446026880682369E6691843636910257A
:102390000027334318437D4913687D4E3340034380
:1023A000136020684268E36822F440521A43426096
:1023B0002268A0698A4201D0236A1843936823F4F3
:1023C000306303439360734A2368734893420DD18B
:1023D000D0F8880010F0030006D001282AD0022887
:1023E00026D0032829D127E0012526E06B4A934215
:1023F0000BD1D0F8880010F00C0017D0042819D0A9
:10240000082815D00C2818D116E08B4215D1D0F829
:10241000880010F4406009D0B0F5806F0AD0B0F5A4
:10242000006F05D0B0F5406F07D105E0002504E04E
:10243000022502E0042500E00825594A00264FF451
:1024400000408B423DD135B1022D07D0042D07D07D
:10245000082D10D107E0FEF705FE03E0104602E06C
:10246000FEF724FEA8B3626802EB4201814202D863
:10247000B0EB023F01D9012775E0DFF828815DB19B
:10248000022D0CD0042D13D0082DF4D150082905AD
:10249000401846F1000105E0FEF7E4FD0AE05008AF
:1024A0004149F5E70023FDF78FFEA0F5407156E0A6
:1024B000FEF7FCFD6268010E030250081818714116
:1024C000F0E7E1694FF6EF7881422FD1092DD2D2A2
:1024D00000E048E0DFE805F00609200523050505D2
:1024E0002600C8E7FEF7BEFD01E0FEF7CDFD410086
:1024F000D4F8040001EB5001B1FBF0F080B2A0F180
:1025000010014145B7D84FF6F0710140C0F34200C9
:1025100001432068C16026E024496068EAE7FEF7CD
:10252000C5FDE4E74FF480316068E3E7092DA2D2EE
:10253000DFE805F006091E052205050525009AE7D6
:10254000FEF790FD01E0FEF79FFD0146606801EB9C
:10255000500100BFB1FBF0F080B2A0F11001414585
:1025600089D82168C860266638466666BDE8F0816D
:10257000606802EB5001EDE7FEF798FDE5E7616862
:1025800000EB5100B0FBF1F0E6E7000000800040F6
:10259000F369FFEF003801400010024000440040A2
:1025A0000024F400FFFC0F00000024F40048E801C0
:1025B0002DE9F041984617460E460446069D1DE05B
:1025C000681C1BD02DB1FEF791F8A0EB0800A842C3
:1025D00014D92068016821F4D071016020688168F5
:1025E00021F001018160202084F8710084F87200DC
:1025F000002084F870000320BDE8F0812068C069E5
:1026000036EA000004D00020B842D9D00020F3E719
:102610000120F9E70EB500208DF80000C823012243
:1026200069461948FFF724F99DF8000017490D285D
:1026300012D0096821BB16490A781AB115490A78DF
:102640002AB11DE00870C8230122114915E0087065
:10265000C82301220F4910E0012008600A208DF8EC
:1026600004000D208DF80800C823012201A90648A6
:10267000FFF773F9C823012202A90348FFF76DF998
:102680000148FEF7E3FF0EBD780000200C0000209B
:102690000400002005000020FEE702E008C8121F29
:1026A00008C1002AFAD170477047002001E001C13B
:1026B000121F002AFBD170472DE9F05F4A48C1780C
:1026C00000297DD0C06801287AD14848484E0827A3
:1026D0000168DFF820B14FF00C094FF0FF3A0029F4
:1026E00037DD846800F1180316CC83E816004FF03C
:1026F00000014C460EE000BF01EB4103826801F18E
:10270000010102EB830504EB83031A4492E80C10E9
:1027100085E80C1002688A42EEDC511E0160836875
:1027200001EB410143F821A00268816802EB4202FB
:1027300007EB82028E508268006800EB40030420A1
:1027400000EB830042F800B028481830406880470A
:1027500002E001D1FFF7FEFA244C00250C343DE0E5
:1027600005EB4501A06807EB81014158B14238D023
:10277000816831BBD0E90010FFF7F8FA0020494624
:102780000DE000BF00EB400CA368401C03EB8C0283
:1027900001EB8C0C634493E8081182E8081122686D
:1027A0008242EFDC501E2060A26800EB400042F83D
:1027B00020A02168A06801EB410107EB810101E045
:1027C0000FE00AE046502168A26801EB41030421B2
:1027D00001EB83016D1E42F801B06D1C20680028DA
:1027E000BED100F009B8000000000020F000002079
:1027F0009F860100551D000830BCBDE8C09F000049
:102800002DE9F05F1E4D0A240027C5E900747820E9
:1028100000F0C0F805F10C06A860C6E90074782045
:1028200000F0B8F8B0600020164BDFF85CB0A946A5
:10283000B246421E4FF0080ED9F8085000EB400196
:102840000EEB810645F82120D9F808C0042707EBD4
:1028500081074CF80630D9F808C0401CA0424CF85B
:1028600007B0DAF8088048F82120DAF808108B5110
:10287000DAF8081041F807B0DEDB00F007B8000016
:10288000F00000209F860100551D000830BCBDE807
:10289000C09F00002DE9F047244B491C1C689D682F
:1028A00004EB4406082404EB8606A9511D689968C8
:1028B00005EB450541F825201A68042502EB420284
:1028C000996805EB820288501868401C0021186046
:1028D00026E0002020E000BF01EB410C9A6804EBE9
:1028E0008C05565900EB400504EB8507D759BE42CD
:1028F00011DA81420FD002EB8C0802EB850298E8D6
:10290000C010B146BA46C4CA88E8C4009A6802EB4F
:10291000850282E80016401C1A688242DCDC491CF1
:1029200018688842D5DCBDE8F0870000FC00002074
:10293000FEF7F8F8FFF7E4FBFFF78EF9FFF7C2F9AF
:10294000FFF7E0F90E4911200870891C1220087069
:10295000FFF756FF08210B48FFF708FA07210A483E
:10296000FFF704FA06210948FFF700FA0848006853
:10297000016841F020010160FFF79EFEFCE70000C6
:1029800006000020B91F0008AD040008F52100086A
:1029900078000020F0B50B30154D20F00701002421
:1029A000144A0FE003688B420BD38B4205D95E1AA1
:1029B00043184768C3E9006700E04368136002C03A
:1029C00004E0021D10680028ECD12046002802D146
:1029D000286808B10020F0BD064A07481060074A81
:1029E000121A22F00702C0E9002401202860D7E76C
:1029F00028000020240000201C01002018030020D3
:102A0000000000000000000001020304060708099E
:102A1000A0860100400D0300801A060000350C005E
:102A200040420F0080841E0000093D0000127A0021
:102A30000024F40000366E010048E801006CDC025E
:102A40000000000001020304682A000800000020C2
:102A50002C0000009A260008942A00082C00002070
:102A6000EC060000AA2600080A0D00010000000084
:102A700000000000000000000000000000002E0028
:102A8000000000000000000000093D000000000000
:042A90000000000042
:040000050800018D61
:00000001FF
